:03000000020030CB
:03000B0002020AE4
:100030007580FFD29574381150115D740E115011F6
:100040005D74011150115D74801150115D020062E8
:10005000F5A0C2B1C2B0D2B2115DC2B2227BFFDB49
:10006000FE227420316F115D744D316F115D744942
:10007000316F115D7443316F115D7452316F115DD9
:10008000744F316F115D7443316F115D744F316F77
:10009000115D744E316F115D7454316F115D745286
:1000A000316F115D744F316F115D744C316F115DA3
:1000B000744C316F115D7445316F115D7452316F45
:1000C000115D74C11150115D7450316F115D745226
:1000D000316F115D744F316F115D744A316F115D75
:1000E0007445316F115D7443316F115D7454316F1C
:1000F000115D317C74011150115D7420316F115DFF
:100100007454316F115D744D316F115D7450316FE6
:10011000115D7420316F115D7443316F115D744F47
:10012000316F115D744E316F115D7454316F115D1B
:100130007452316F115D744F316F115D744C316FBA
:10014000115D744C316F115D7445316F115D7444F4
:0A015000316F115D7420316F115DF5
:10015A007446316F115D7441316F115D744E316FA8
:10016A00115D02018BF5A0D2B1C2B0D2B2115DC24B
:10017A00B2227BFF7DFF75752FD575FDDDF8DBF4A7
:10018A0022D2B5D2B3C2B4D2B420B5FDC2B374C1BF
:10019A001150115D75890275A882A980E9FC31B6F2
:1001AA00EC1201E41201F9317C020030C3B91E00DD
:1001BA00500BC3B91900500AC28C0201CE31D002C9
:1001CA0001CE31DAC322C28C7AAA758CAFD28C22C4
:1001DA00C28C7AAA758C1FD28C2275F00A84AFF071
:1001EA0075F00A84AEF0EE2430FEEF2430FF22EEE2
:1001FA00316F115DEF316F115D7443316F115D2203
:0E020A00B295C28C8A76D576FDD28CB2953232
:00000001FF
